{
  "contractName": "CICfactory",
  "abi": [
    {
      "inputs": [],
      "stateMutability": "nonpayable",
      "type": "constructor"
    },
    {
      "inputs": [
        {
          "internalType": "uint256",
          "name": "",
          "type": "uint256"
        }
      ],
      "name": "CIC_list",
      "outputs": [
        {
          "internalType": "string",
          "name": "",
          "type": "string"
        }
      ],
      "stateMutability": "view",
      "type": "function",
      "constant": true
    },
    {
      "inputs": [],
      "name": "GetCount",
      "outputs": [
        {
          "internalType": "uint256",
          "name": "count",
          "type": "uint256"
        }
      ],
      "stateMutability": "view",
      "type": "function",
      "constant": true
    },
    {
      "inputs": [
        {
          "internalType": "string",
          "name": "cic",
          "type": "string"
        }
      ],
      "name": "getContractSymbol",
      "outputs": [
        {
          "internalType": "string",
          "name": "symbol",
          "type": "string"
        }
      ],
      "stateMutability": "view",
      "type": "function",
      "constant": true
    },
    {
      "inputs": [
        {
          "internalType": "string",
          "name": "cic",
          "type": "string"
        }
      ],
      "name": "getContractAddress",
      "outputs": [
        {
          "internalType": "address",
          "name": "erc20Address",
          "type": "address"
        }
      ],
      "stateMutability": "view",
      "type": "function",
      "constant": true
    },
    {
      "inputs": [
        {
          "internalType": "string",
          "name": "cic",
          "type": "string"
        }
      ],
      "name": "getContractBackers",
      "outputs": [
        {
          "internalType": "address[]",
          "name": "backers",
          "type": "address[]"
        }
      ],
      "stateMutability": "view",
      "type": "function",
      "constant": true
    },
    {
      "inputs": [
        {
          "internalType": "string",
          "name": "cic",
          "type": "string"
        }
      ],
      "name": "getContractSignatures",
      "outputs": [
        {
          "internalType": "bool[]",
          "name": "signed",
          "type": "bool[]"
        }
      ],
      "stateMutability": "view",
      "type": "function",
      "constant": true
    },
    {
      "inputs": [
        {
          "internalType": "string",
          "name": "cic",
          "type": "string"
        }
      ],
      "name": "getContractGoods",
      "outputs": [
        {
          "internalType": "string[]",
          "name": "goods",
          "type": "string[]"
        }
      ],
      "stateMutability": "view",
      "type": "function",
      "constant": true
    },
    {
      "inputs": [
        {
          "internalType": "string",
          "name": "cic",
          "type": "string"
        }
      ],
      "name": "getContractAmounts",
      "outputs": [
        {
          "internalType": "uint256[]",
          "name": "amounts",
          "type": "uint256[]"
        }
      ],
      "stateMutability": "view",
      "type": "function",
      "constant": true
    },
    {
      "inputs": [
        {
          "internalType": "string",
          "name": "cic",
          "type": "string"
        }
      ],
      "name": "getContractValues",
      "outputs": [
        {
          "internalType": "uint256[]",
          "name": "values",
          "type": "uint256[]"
        }
      ],
      "stateMutability": "view",
      "type": "function",
      "constant": true
    },
    {
      "inputs": [
        {
          "internalType": "string",
          "name": "cic",
          "type": "string"
        }
      ],
      "name": "getContractMinted",
      "outputs": [
        {
          "internalType": "uint256[]",
          "name": "minted",
          "type": "uint256[]"
        }
      ],
      "stateMutability": "view",
      "type": "function",
      "constant": true
    },
    {
      "inputs": [
        {
          "internalType": "string",
          "name": "cic",
          "type": "string"
        }
      ],
      "name": "getContractHash",
      "outputs": [
        {
          "internalType": "string",
          "name": "hash",
          "type": "string"
        }
      ],
      "stateMutability": "view",
      "type": "function",
      "constant": true
    },
    {
      "inputs": [
        {
          "internalType": "string",
          "name": "_name",
          "type": "string"
        },
        {
          "internalType": "string",
          "name": "symbol",
          "type": "string"
        },
        {
          "internalType": "address[]",
          "name": "backers",
          "type": "address[]"
        },
        {
          "internalType": "bool[]",
          "name": "signed",
          "type": "bool[]"
        },
        {
          "internalType": "string[]",
          "name": "goods",
          "type": "string[]"
        },
        {
          "internalType": "uint256[]",
          "name": "amounts",
          "type": "uint256[]"
        },
        {
          "internalType": "uint256[]",
          "name": "values",
          "type": "uint256[]"
        },
        {
          "internalType": "string",
          "name": "_hash",
          "type": "string"
        }
      ],
      "name": "Create_CIC_Contract",
      "outputs": [
        {
          "internalType": "bool",
          "name": "",
          "type": "bool"
        }
      ],
      "stateMutability": "nonpayable",
      "type": "function"
    },
    {
      "inputs": [
        {
          "internalType": "string",
          "name": "cic",
          "type": "string"
        },
        {
          "internalType": "uint256",
          "name": "backer_num",
          "type": "uint256"
        }
      ],
      "name": "signCIC",
      "outputs": [
        {
          "internalType": "bool",
          "name": "",
          "type": "bool"
        }
      ],
      "stateMutability": "nonpayable",
      "type": "function"
    },
    {
      "inputs": [
        {
          "internalType": "string",
          "name": "cic_name",
          "type": "string"
        }
      ],
      "name": "mintCIC",
      "outputs": [
        {
          "internalType": "address",
          "name": "newCIC",
          "type": "address"
        }
      ],
      "stateMutability": "nonpayable",
      "type": "function"
    }
  ],
  "bytecode": "0x608060405234801561001057600080fd5b50615b96806100206000396000f3fe60806040523480156200001157600080fd5b5060043610620001005760003560e01c8063621d5e1e116200009957806399ac6852116200006f57806399ac6852146200030d578063b74b4fab1462000343578063ca924dca1462000379578063f39f4c5514620003af5762000100565b8063621d5e1e146200026b5780638844df3b14620002a15780638d1e9a4814620002d75762000100565b806314199d2511620000db57806314199d251462000193578063195c4e9814620001c95780633fd8b21e14620001ff5780635a5658e414620002355762000100565b806304433bbc14620001055780630ab93971146200013b5780630e219339146200015d575b600080fd5b6200012360048036038101906200011d919062001685565b620003e5565b6040516200013291906200171f565b60405180910390f35b6200014562000435565b60405162000154919062001757565b60405180910390f35b6200017b600480360381019062000175919062001685565b62000441565b6040516200018a919062001818565b60405180910390f35b620001b16004803603810190620001ab919062001da0565b62000501565b604051620001c0919062001f80565b60405180910390f35b620001e76004803603810190620001e1919062001f9d565b620008d6565b604051620001f6919062001818565b60405180910390f35b6200021d600480360381019062000217919062001685565b6200098b565b6040516200022c91906200209d565b60405180910390f35b6200025360048036038101906200024d9190620020c1565b62000a0b565b60405162000262919062001f80565b60405180910390f35b62000289600480360381019062000283919062001685565b62000b19565b604051620002989190620021f9565b60405180910390f35b620002bf6004803603810190620002b9919062001685565b62000bbe565b604051620002ce91906200233f565b60405180910390f35b620002f56004803603810190620002ef919062001685565b62000cc7565b6040516200030491906200209d565b60405180910390f35b6200032b600480360381019062000325919062001685565b62000d47565b6040516200033a919062001818565b60405180910390f35b6200036160048036038101906200035b919062001685565b62000e07565b6040516200037091906200209d565b60405180910390f35b62000397600480360381019062000391919062001685565b62000e87565b604051620003a6919062002431565b60405180910390f35b620003cd6004803603810190620003c7919062001685565b62000f3d565b604051620003dc91906200171f565b60405180910390f35b600060018383604051620003fb92919062002489565b908152602001604051809103902060020160009054906101000a900473ffffffffffffffffffffffffffffffffffffffff16905092915050565b60008080549050905090565b6060600183836040516200045792919062002489565b908152602001604051809103902060090180546200047590620024d3565b80601f0160208091040260200160405190810160405280929190818152602001828054620004a390620024d3565b8015620004f45780601f10620004c857610100808354040283529160200191620004f4565b820191906000526020600020905b815481529060010190602001808311620004d657829003601f168201915b5050505050905092915050565b6000604051602001620005149062002533565b6040516020818303038152906040528051906020012060018d8d6040516200053e92919062002489565b9081526020016040518091039020600001604051602001620005619190620025ea565b60405160208183030381529060405280519060200120146200058257600080fd5b6000885167ffffffffffffffff811115620005a257620005a16200183c565b5b604051908082528060200260200182016040528015620005d15781602001602082028036833780820191505090505b5090506040518061014001604052808e8e8080601f016020809104026020016040519081016040528093929190818152602001838380828437600081840152601f19601f8201169050808301925050505050505081526020018c8c8080601f016020809104026020016040519081016040528093929190818152602001838380828437600081840152601f19601f820116905080830192505050505050508152602001600073ffffffffffffffffffffffffffffffffffffffff1681526020018a815260200189815260200188815260200187815260200186815260200182815260200185858080601f016020809104026020016040519081016040528093929190818152602001838380828437600081840152601f19601f8201169050808301925050505050505081525060018e8e6040516200071192919062002489565b908152602001604051809103902060008201518160000190805190602001906200073d92919062001251565b5060208201518160010190805190602001906200075c92919062001251565b5060408201518160020160006101000a81548173ffffffffffffffffffffffffffffffffffffffff021916908373ffffffffffffffffffffffffffffffffffffffff1602179055506060820151816003019080519060200190620007c2929190620012e2565b506080820151816004019080519060200190620007e192919062001371565b5060a0820151816005019080519060200190620008009291906200141e565b5060c08201518160060190805190602001906200081f92919062001485565b5060e08201518160070190805190602001906200083e92919062001485565b506101008201518160080190805190602001906200085e92919062001485565b506101208201518160090190805190602001906200087e92919062001251565b5090505060008d8d90918060018154018082558091505060019003906000526020600020016000909192909192909192909192509190620008c1929190620014d7565b5060019150509b9a5050505050505050505050565b60008181548110620008e757600080fd5b9060005260206000200160009150905080546200090490620024d3565b80601f01602080910402602001604051908101604052809291908181526020018280546200093290620024d3565b8015620009835780601f10620009575761010080835404028352916020019162000983565b820191906000526020600020905b8154815290600101906020018083116200096557829003601f168201915b505050505081565b606060018383604051620009a192919062002489565b9081526020016040518091039020600601805480602002602001604051908101604052809291908181526020018280548015620009fe57602002820191906000526020600020905b815481526020019060010190808311620009e9575b5050505050905092915050565b60003373ffffffffffffffffffffffffffffffffffffffff166001858560405162000a3892919062002489565b9081526020016040518091039020600301838154811062000a5e5762000a5d62002603565b5b9060005260206000200160009054906101000a900473ffffffffffffffffffffffffffffffffffffffff1673ffffffffffffffffffffffffffffffffffffffff161462000aaa57600080fd5b600180858560405162000abf92919062002489565b9081526020016040518091039020600401838154811062000ae55762000ae462002603565b5b90600052602060002090602091828204019190066101000a81548160ff021916908315150217905550600190509392505050565b60606001838360405162000b2f92919062002489565b908152602001604051809103902060040180548060200260200160405190810160405280929190818152602001828054801562000bb157602002820191906000526020600020906000905b82829054906101000a900460ff1615158152602001906001019060208260000104928301926001038202915080841162000b7a5790505b5050505050905092915050565b60606001838360405162000bd492919062002489565b9081526020016040518091039020600501805480602002602001604051908101604052809291908181526020016000905b8282101562000cbb57838290600052602060002001805462000c2790620024d3565b80601f016020809104026020016040519081016040528092919081815260200182805462000c5590620024d3565b801562000ca65780601f1062000c7a5761010080835404028352916020019162000ca6565b820191906000526020600020905b81548152906001019060200180831162000c8857829003601f168201915b50505050508152602001906001019062000c05565b50505050905092915050565b60606001838360405162000cdd92919062002489565b908152602001604051809103902060070180548060200260200160405190810160405280929190818152602001828054801562000d3a57602002820191906000526020600020905b81548152602001906001019080831162000d25575b5050505050905092915050565b60606001838360405162000d5d92919062002489565b9081526020016040518091039020600101805462000d7b90620024d3565b80601f016020809104026020016040519081016040528092919081815260200182805462000da990620024d3565b801562000dfa5780601f1062000dce5761010080835404028352916020019162000dfa565b820191906000526020600020905b81548152906001019060200180831162000ddc57829003601f168201915b5050505050905092915050565b60606001838360405162000e1d92919062002489565b908152602001604051809103902060080180548060200260200160405190810160405280929190818152602001828054801562000e7a57602002820191906000526020600020905b81548152602001906001019080831162000e65575b5050505050905092915050565b60606001838360405162000e9d92919062002489565b908152602001604051809103902060030180548060200260200160405190810160405280929190818152602001828054801562000f3057602002820191906000526020600020905b8160009054906101000a900473ffffffffffffffffffffffffffffffffffffffff1673ffffffffffffffffffffffffffffffffffffffff168152602001906001019080831162000ee5575b5050505050905092915050565b600080600090505b6001848460405162000f5992919062002489565b90815260200160405180910390206003018054905081101562000ff757600115156001858560405162000f8e92919062002489565b9081526020016040518091039020600401828154811062000fb45762000fb362002603565b5b90600052602060002090602091828204019190069054906101000a900460ff1615151462000fe157600080fd5b808062000fee9062002661565b91505062000f45565b506000600184846040516200100e92919062002489565b9081526020016040518091039020600001600185856040516200103392919062002489565b9081526020016040518091039020600101604051620010529062001568565b6200105f9291906200273b565b604051809103906000f0801580156200107c573d6000803e3d6000fd5b50905060005b600185856040516200109692919062002489565b908152602001604051809103902060070180549050811015620011e2578173ffffffffffffffffffffffffffffffffffffffff166340c10f1960018787604051620010e392919062002489565b9081526020016040518091039020600301838154811062001109576200110862002603565b5b9060005260206000200160009054906101000a900473ffffffffffffffffffffffffffffffffffffffff16600188886040516200114892919062002489565b908152602001604051809103902060070184815481106200116e576200116d62002603565b5b90600052602060002001546040518363ffffffff1660e01b81526004016200119892919062002776565b600060405180830381600087803b158015620011b357600080fd5b505af1158015620011c8573d6000803e3d6000fd5b505050508080620011d99062002661565b91505062001082565b508060018585604051620011f892919062002489565b908152602001604051809103902060020160006101000a81548173ffffffffffffffffffffffffffffffffffffffff021916908373ffffffffffffffffffffffffffffffffffffffff1602179055508091505092915050565b8280546200125f90620024d3565b90600052602060002090601f016020900481019282620012835760008555620012cf565b82601f106200129e57805160ff1916838001178555620012cf565b82800160010185558215620012cf579182015b82811115620012ce578251825591602001919060010190620012b1565b5b509050620012de919062001576565b5090565b8280548282559060005260206000209081019282156200135e579160200282015b828111156200135d5782518260006101000a81548173ffffffffffffffffffffffffffffffffffffffff021916908373ffffffffffffffffffffffffffffffffffffffff1602179055509160200191906001019062001303565b5b5090506200136d919062001576565b5090565b82805482825590600052602060002090601f016020900481019282156200140b5791602002820160005b83821115620013da57835183826101000a81548160ff02191690831515021790555092602001926001016020816000010492830192600103026200139b565b8015620014095782816101000a81549060ff0219169055600101602081600001049283019260010302620013da565b505b5090506200141a919062001576565b5090565b82805482825590600052602060002090810192821562001472579160200282015b82811115620014715782518290805190602001906200146092919062001251565b50916020019190600101906200143f565b5b50905062001481919062001595565b5090565b828054828255906000526020600020908101928215620014c4579160200282015b82811115620014c3578251825591602001919060010190620014a6565b5b509050620014d3919062001576565b5090565b828054620014e590620024d3565b90600052602060002090601f01602090048101928262001509576000855562001555565b82601f106200152457803560ff191683800117855562001555565b8280016001018555821562001555579182015b828111156200155457823582559160200191906001019062001537565b5b50905062001564919062001576565b5090565b6133bd80620027a483390190565b5b808211156200159157600081600090555060010162001577565b5090565b5b80821115620015b95760008181620015af9190620015bd565b5060010162001596565b5090565b508054620015cb90620024d3565b6000825580601f10620015df575062001600565b601f016020900490600052602060002090810190620015ff919062001576565b5b50565b6000604051905090565b600080fd5b600080fd5b600080fd5b600080fd5b600080fd5b60008083601f8401126200163f576200163e62001617565b5b8235905067ffffffffffffffff8111156200165f576200165e6200161c565b5b6020830191508360018202830111156200167e576200167d62001621565b5b9250929050565b600080602083850312156200169f576200169e6200160d565b5b600083013567ffffffffffffffff811115620016c057620016bf62001612565b5b620016ce8582860162001626565b92509250509250929050565b600073ffffffffffffffffffffffffffffffffffffffff82169050919050565b60006200170782620016da565b9050919050565b6200171981620016fa565b82525050565b60006020820190506200173660008301846200170e565b92915050565b6000819050919050565b62001751816200173c565b82525050565b60006020820190506200176e600083018462001746565b92915050565b600081519050919050565b600082825260208201905092915050565b60005b83811015620017b057808201518184015260208101905062001793565b83811115620017c0576000848401525b50505050565b6000601f19601f8301169050919050565b6000620017e48262001774565b620017f081856200177f565b93506200180281856020860162001790565b6200180d81620017c6565b840191505092915050565b60006020820190508181036000830152620018348184620017d7565b905092915050565b7f4e487b7100000000000000000000000000000000000000000000000000000000600052604160045260246000fd5b6200187682620017c6565b810181811067ffffffffffffffff821117156200189857620018976200183c565b5b80604052505050565b6000620018ad62001603565b9050620018bb82826200186b565b919050565b600067ffffffffffffffff821115620018de57620018dd6200183c565b5b602082029050602081019050919050565b620018fa81620016fa565b81146200190657600080fd5b50565b6000813590506200191a81620018ef565b92915050565b6000620019376200193184620018c0565b620018a1565b905080838252602082019050602084028301858111156200195d576200195c62001621565b5b835b818110156200198a578062001975888262001909565b8452602084019350506020810190506200195f565b5050509392505050565b600082601f830112620019ac57620019ab62001617565b5b8135620019be84826020860162001920565b91505092915050565b600067ffffffffffffffff821115620019e557620019e46200183c565b5b602082029050602081019050919050565b60008115159050919050565b62001a0d81620019f6565b811462001a1957600080fd5b50565b60008135905062001a2d8162001a02565b92915050565b600062001a4a62001a4484620019c7565b620018a1565b9050808382526020820190506020840283018581111562001a705762001a6f62001621565b5b835b8181101562001a9d578062001a88888262001a1c565b84526020840193505060208101905062001a72565b5050509392505050565b600082601f83011262001abf5762001abe62001617565b5b813562001ad184826020860162001a33565b91505092915050565b600067ffffffffffffffff82111562001af85762001af76200183c565b5b602082029050602081019050919050565b600080fd5b600067ffffffffffffffff82111562001b2c5762001b2b6200183c565b5b62001b3782620017c6565b9050602081019050919050565b82818337600083830152505050565b600062001b6a62001b648462001b0e565b620018a1565b90508281526020810184848401111562001b895762001b8862001b09565b5b62001b9684828562001b44565b509392505050565b600082601f83011262001bb65762001bb562001617565b5b813562001bc884826020860162001b53565b91505092915050565b600062001be862001be28462001ada565b620018a1565b9050808382526020820190506020840283018581111562001c0e5762001c0d62001621565b5b835b8181101562001c5c57803567ffffffffffffffff81111562001c375762001c3662001617565b5b80860162001c46898262001b9e565b8552602085019450505060208101905062001c10565b5050509392505050565b600082601f83011262001c7e5762001c7d62001617565b5b813562001c9084826020860162001bd1565b91505092915050565b600067ffffffffffffffff82111562001cb75762001cb66200183c565b5b602082029050602081019050919050565b62001cd3816200173c565b811462001cdf57600080fd5b50565b60008135905062001cf38162001cc8565b92915050565b600062001d1062001d0a8462001c99565b620018a1565b9050808382526020820190506020840283018581111562001d365762001d3562001621565b5b835b8181101562001d63578062001d4e888262001ce2565b84526020840193505060208101905062001d38565b5050509392505050565b600082601f83011262001d855762001d8462001617565b5b813562001d9784826020860162001cf9565b91505092915050565b60008060008060008060008060008060006101008c8e03121562001dc95762001dc86200160d565b5b60008c013567ffffffffffffffff81111562001dea5762001de962001612565b5b62001df88e828f0162001626565b9b509b505060208c013567ffffffffffffffff81111562001e1e5762001e1d62001612565b5b62001e2c8e828f0162001626565b995099505060408c013567ffffffffffffffff81111562001e525762001e5162001612565b5b62001e608e828f0162001994565b97505060608c013567ffffffffffffffff81111562001e845762001e8362001612565b5b62001e928e828f0162001aa7565b96505060808c013567ffffffffffffffff81111562001eb65762001eb562001612565b5b62001ec48e828f0162001c66565b95505060a08c013567ffffffffffffffff81111562001ee85762001ee762001612565b5b62001ef68e828f0162001d6d565b94505060c08c013567ffffffffffffffff81111562001f1a5762001f1962001612565b5b62001f288e828f0162001d6d565b93505060e08c013567ffffffffffffffff81111562001f4c5762001f4b62001612565b5b62001f5a8e828f0162001626565b92509250509295989b509295989b9093969950565b62001f7a81620019f6565b82525050565b600060208201905062001f97600083018462001f6f565b92915050565b60006020828403121562001fb65762001fb56200160d565b5b600062001fc68482850162001ce2565b91505092915050565b600081519050919050565b600082825260208201905092915050565b6000819050602082019050919050565b62002006816200173c565b82525050565b60006200201a838362001ffb565b60208301905092915050565b6000602082019050919050565b6000620020408262001fcf565b6200204c818562001fda565b9350620020598362001feb565b8060005b83811015620020905781516200207488826200200c565b9750620020818362002026565b9250506001810190506200205d565b5085935050505092915050565b60006020820190508181036000830152620020b9818462002033565b905092915050565b600080600060408486031215620020dd57620020dc6200160d565b5b600084013567ffffffffffffffff811115620020fe57620020fd62001612565b5b6200210c8682870162001626565b93509350506020620021218682870162001ce2565b9150509250925092565b600081519050919050565b600082825260208201905092915050565b6000819050602082019050919050565b6200216281620019f6565b82525050565b600062002176838362002157565b60208301905092915050565b6000602082019050919050565b60006200219c826200212b565b620021a8818562002136565b9350620021b58362002147565b8060005b83811015620021ec578151620021d0888262002168565b9750620021dd8362002182565b925050600181019050620021b9565b5085935050505092915050565b600060208201905081810360008301526200221581846200218f565b905092915050565b600081519050919050565b600082825260208201905092915050565b6000819050602082019050919050565b600082825260208201905092915050565b6000620022678262001774565b62002273818562002249565b93506200228581856020860162001790565b6200229081620017c6565b840191505092915050565b6000620022a983836200225a565b905092915050565b6000602082019050919050565b6000620022cb826200221d565b620022d7818562002228565b935083602082028501620022eb8562002239565b8060005b858110156200232d57848403895281516200230b85826200229b565b94506200231883620022b1565b925060208a01995050600181019050620022ef565b50829750879550505050505092915050565b600060208201905081810360008301526200235b8184620022be565b905092915050565b600081519050919050565b600082825260208201905092915050565b6000819050602082019050919050565b6200239a81620016fa565b82525050565b6000620023ae83836200238f565b60208301905092915050565b6000602082019050919050565b6000620023d48262002363565b620023e081856200236e565b9350620023ed836200237f565b8060005b8381101562002424578151620024088882620023a0565b97506200241583620023ba565b925050600181019050620023f1565b5085935050505092915050565b600060208201905081810360008301526200244d8184620023c7565b905092915050565b600081905092915050565b60006200246e838562002455565b93506200247d83858462001b44565b82840190509392505050565b60006200249882848662002460565b91508190509392505050565b7f4e487b7100000000000000000000000000000000000000000000000000000000600052602260045260246000fd5b60006002820490506001821680620024ec57607f821691505b60208210811415620025035762002502620024a4565b5b50919050565b50565b60006200251b60008362002455565b9150620025288262002509565b600082019050919050565b600062002540826200250c565b9150819050919050565b60008190508160005260206000209050919050565b600081546200256e81620024d3565b6200257a818662002455565b94506001821660008114620025985760018114620025aa57620025e1565b60ff19831686528186019350620025e1565b620025b5856200254a565b60005b83811015620025d957815481890152600182019150602081019050620025b8565b838801955050505b50505092915050565b6000620025f882846200255f565b915081905092915050565b7f4e487b7100000000000000000000000000000000000000000000000000000000600052603260045260246000fd5b7f4e487b7100000000000000000000000000000000000000000000000000000000600052601160045260246000fd5b60006200266e826200173c565b91507fffffffffffffffffffffffffffffffffffffffffffffffffffffffffffffffff821415620026a457620026a362002632565b5b600182019050919050565b60008154620026be81620024d3565b620026ca81866200177f565b94506001821660008114620026e85760018114620026fb5762002732565b60ff198316865260208601935062002732565b62002706856200254a565b60005b838110156200272a5781548189015260018201915060208101905062002709565b808801955050505b50505092915050565b60006040820190508181036000830152620027578185620026af565b905081810360208301526200276d8184620026af565b90509392505050565b60006040820190506200278d60008301856200170e565b6200279c602083018462001746565b939250505056fe60806040523480156200001157600080fd5b50604051620033bd380380620033bd83398181016040528101906200003791906200059f565b818181600590805190602001906200005192919062000352565b5080600690805190602001906200006a92919062000352565b505050620000826000801b33620000bc60201b60201c565b620000b47f9f2df0fed2c77648de5860a4cc508cd0818c85b8b8a1ab4ceeef8d981c8956a633620000bc60201b60201c565b505062000689565b620000ce8282620000d260201b60201c565b5050565b620000e982826200011a60201b62000d2e1760201c565b6200011581600160008581526020019081526020016000206200020b60201b62000e0e1790919060201c565b505050565b6200012c82826200024360201b60201c565b6200020757600160008084815260200190815260200160002060000160008373ffffffffffffffffffffffffffffffffffffffff1673ffffffffffffffffffffffffffffffffffffffff16815260200190815260200160002060006101000a81548160ff021916908315150217905550620001ac620002ad60201b60201c565b73ffffffffffffffffffffffffffffffffffffffff168173ffffffffffffffffffffffffffffffffffffffff16837f2f8788117e7eff1d82e926ec794901d17c78024a50270940304540a733656f0d60405160405180910390a45b5050565b60006200023b836000018373ffffffffffffffffffffffffffffffffffffffff1660001b620002b560201b60201c565b905092915050565b600080600084815260200190815260200160002060000160008373ffffffffffffffffffffffffffffffffffffffff1673ffffffffffffffffffffffffffffffffffffffff16815260200190815260200160002060009054906101000a900460ff16905092915050565b600033905090565b6000620002c983836200032f60201b60201c565b6200032457826000018290806001815401808255809150506001900390600052602060002001600090919091909150558260000180549050836001016000848152602001908152602001600020819055506001905062000329565b600090505b92915050565b600080836001016000848152602001908152602001600020541415905092915050565b828054620003609062000653565b90600052602060002090601f016020900481019282620003845760008555620003d0565b82601f106200039f57805160ff1916838001178555620003d0565b82800160010185558215620003d0579182015b82811115620003cf578251825591602001919060010190620003b2565b5b509050620003df9190620003e3565b5090565b5b80821115620003fe576000816000905550600101620003e4565b5090565b6000604051905090565b600080fd5b600080fd5b600080fd5b600080fd5b6000601f19601f8301169050919050565b7f4e487b7100000000000000000000000000000000000000000000000000000000600052604160045260246000fd5b6200046b8262000420565b810181811067ffffffffffffffff821117156200048d576200048c62000431565b5b80604052505050565b6000620004a262000402565b9050620004b0828262000460565b919050565b600067ffffffffffffffff821115620004d357620004d262000431565b5b620004de8262000420565b9050602081019050919050565b60005b838110156200050b578082015181840152602081019050620004ee565b838111156200051b576000848401525b50505050565b6000620005386200053284620004b5565b62000496565b9050828152602081018484840111156200055757620005566200041b565b5b62000564848285620004eb565b509392505050565b600082601f83011262000584576200058362000416565b5b81516200059684826020860162000521565b91505092915050565b60008060408385031215620005b957620005b86200040c565b5b600083015167ffffffffffffffff811115620005da57620005d962000411565b5b620005e8858286016200056c565b925050602083015167ffffffffffffffff8111156200060c576200060b62000411565b5b6200061a858286016200056c565b9150509250929050565b7f4e487b7100000000000000000000000000000000000000000000000000000000600052602260045260246000fd5b600060028204905060018216806200066c57607f821691505b6020821081141562000683576200068262000624565b5b50919050565b612d2480620006996000396000f3fe608060405234801561001057600080fd5b50600436106101585760003560e01c806370a08231116100c3578063a457c2d71161007c578063a457c2d7146103ff578063a9059cbb1461042f578063ca15c8731461045f578063d53913931461048f578063d547741f146104ad578063dd62ed3e146104c957610158565b806370a082311461031757806379cc6790146103475780639010d07c1461036357806391d148541461039357806395d89b41146103c3578063a217fddf146103e157610158565b80632f2ff15d116101155780632f2ff15d14610259578063313ce5671461027557806336568abe1461029357806339509351146102af57806340c10f19146102df57806342966c68146102fb57610158565b806301ffc9a71461015d57806306fdde031461018d578063095ea7b3146101ab57806318160ddd146101db57806323b872dd146101f9578063248a9ca314610229575b600080fd5b61017760048036038101906101729190611d8e565b6104f9565b6040516101849190611dd6565b60405180910390f35b610195610573565b6040516101a29190611e8a565b60405180910390f35b6101c560048036038101906101c09190611f40565b610605565b6040516101d29190611dd6565b60405180910390f35b6101e3610623565b6040516101f09190611f8f565b60405180910390f35b610213600480360381019061020e9190611faa565b61062d565b6040516102209190611dd6565b60405180910390f35b610243600480360381019061023e9190612033565b610725565b604051610250919061206f565b60405180910390f35b610273600480360381019061026e919061208a565b610744565b005b61027d61076d565b60405161028a91906120e6565b60405180910390f35b6102ad60048036038101906102a8919061208a565b610776565b005b6102c960048036038101906102c49190611f40565b6107f9565b6040516102d69190611dd6565b60405180910390f35b6102f960048036038101906102f49190611f40565b6108a5565b005b61031560048036038101906103109190612101565b610923565b005b610331600480360381019061032c919061212e565b610937565b60405161033e9190611f8f565b60405180910390f35b610361600480360381019061035c9190611f40565b610980565b005b61037d6004803603810190610378919061215b565b6109fb565b60405161038a91906121aa565b60405180910390f35b6103ad60048036038101906103a8919061208a565b610a2a565b6040516103ba9190611dd6565b60405180910390f35b6103cb610a94565b6040516103d89190611e8a565b60405180910390f35b6103e9610b26565b6040516103f6919061206f565b60405180910390f35b61041960048036038101906104149190611f40565b610b2d565b6040516104269190611dd6565b60405180910390f35b61044960048036038101906104449190611f40565b610c18565b6040516104569190611dd6565b60405180910390f35b61047960048036038101906104749190612033565b610c36565b6040516104869190611f8f565b60405180910390f35b610497610c5a565b6040516104a4919061206f565b60405180910390f35b6104c760048036038101906104c2919061208a565b610c7e565b005b6104e360048036038101906104de91906121c5565b610ca7565b6040516104f09190611f8f565b60405180910390f35b60007f5a05180f000000000000000000000000000000000000000000000000000000007bffffffffffffffffffffffffffffffffffffffffffffffffffffffff1916827bffffffffffffffffffffffffffffffffffffffffffffffffffffffff1916148061056c575061056b82610e3e565b5b9050919050565b60606005805461058290612234565b80601f01602080910402602001604051908101604052809291908181526020018280546105ae90612234565b80156105fb5780601f106105d0576101008083540402835291602001916105fb565b820191906000526020600020905b8154815290600101906020018083116105de57829003601f168201915b5050505050905090565b6000610619610612610eb8565b8484610ec0565b6001905092915050565b6000600454905090565b600061063a84848461108b565b6000600360008673ffffffffffffffffffffffffffffffffffffffff1673ffffffffffffffffffffffffffffffffffffffff1681526020019081526020016000206000610685610eb8565b73ffffffffffffffffffffffffffffffffffffffff1673ffffffffffffffffffffffffffffffffffffffff16815260200190815260200160002054905082811015610705576040517f08c379a00000000000000000000000000000000000000000000000000000000081526004016106fc906122d8565b60405180910390fd5b61071985610711610eb8565b858403610ec0565b60019150509392505050565b6000806000838152602001908152602001600020600101549050919050565b61074d82610725565b61075e81610759610eb8565b61130f565b61076883836113ac565b505050565b60006012905090565b61077e610eb8565b73ffffffffffffffffffffffffffffffffffffffff168173ffffffffffffffffffffffffffffffffffffffff16146107eb576040517f08c379a00000000000000000000000000000000000000000000000000000000081526004016107e29061236a565b60405180910390fd5b6107f582826113e0565b5050565b600061089b610806610eb8565b848460036000610814610eb8565b73ffffffffffffffffffffffffffffffffffffffff1673ffffffffffffffffffffffffffffffffffffffff16815260200190815260200160002060008873ffffffffffffffffffffffffffffffffffffffff1673ffffffffffffffffffffffffffffffffffffffff1681526020019081526020016000205461089691906123b9565b610ec0565b6001905092915050565b6108d67f9f2df0fed2c77648de5860a4cc508cd0818c85b8b8a1ab4ceeef8d981c8956a66108d1610eb8565b610a2a565b610915576040517f08c379a000000000000000000000000000000000000000000000000000000000815260040161090c90612481565b60405180910390fd5b61091f8282611414565b5050565b61093461092e610eb8565b82611575565b50565b6000600260008373ffffffffffffffffffffffffffffffffffffffff1673ffffffffffffffffffffffffffffffffffffffff168152602001908152602001600020549050919050565b60006109938361098e610eb8565b610ca7565b9050818110156109d8576040517f08c379a00000000000000000000000000000000000000000000000000000000081526004016109cf90612513565b60405180910390fd5b6109ec836109e4610eb8565b848403610ec0565b6109f68383611575565b505050565b6000610a22826001600086815260200190815260200160002061174e90919063ffffffff16565b905092915050565b600080600084815260200190815260200160002060000160008373ffffffffffffffffffffffffffffffffffffffff1673ffffffffffffffffffffffffffffffffffffffff16815260200190815260200160002060009054906101000a900460ff16905092915050565b606060068054610aa390612234565b80601f0160208091040260200160405190810160405280929190818152602001828054610acf90612234565b8015610b1c5780601f10610af157610100808354040283529160200191610b1c565b820191906000526020600020905b815481529060010190602001808311610aff57829003601f168201915b5050505050905090565b6000801b81565b60008060036000610b3c610eb8565b73ffffffffffffffffffffffffffffffffffffffff1673ffffffffffffffffffffffffffffffffffffffff16815260200190815260200160002060008573ffffffffffffffffffffffffffffffffffffffff1673ffffffffffffffffffffffffffffffffffffffff16815260200190815260200160002054905082811015610bf9576040517f08c379a0000000000000000000000000000000000000000000000000000000008152600401610bf0906125a5565b60405180910390fd5b610c0d610c04610eb8565b85858403610ec0565b600191505092915050565b6000610c2c610c25610eb8565b848461108b565b6001905092915050565b6000610c5360016000848152602001908152602001600020611768565b9050919050565b7f9f2df0fed2c77648de5860a4cc508cd0818c85b8b8a1ab4ceeef8d981c8956a681565b610c8782610725565b610c9881610c93610eb8565b61130f565b610ca283836113e0565b505050565b6000600360008473ffffffffffffffffffffffffffffffffffffffff1673ffffffffffffffffffffffffffffffffffffffff16815260200190815260200160002060008373ffffffffffffffffffffffffffffffffffffffff1673ffffffffffffffffffffffffffffffffffffffff16815260200190815260200160002054905092915050565b610d388282610a2a565b610e0a57600160008084815260200190815260200160002060000160008373ffffffffffffffffffffffffffffffffffffffff1673ffffffffffffffffffffffffffffffffffffffff16815260200190815260200160002060006101000a81548160ff021916908315150217905550610daf610eb8565b73ffffffffffffffffffffffffffffffffffffffff168173ffffffffffffffffffffffffffffffffffffffff16837f2f8788117e7eff1d82e926ec794901d17c78024a50270940304540a733656f0d60405160405180910390a45b5050565b6000610e36836000018373ffffffffffffffffffffffffffffffffffffffff1660001b61177d565b905092915050565b60007f7965db0b000000000000000000000000000000000000000000000000000000007bffffffffffffffffffffffffffffffffffffffffffffffffffffffff1916827bffffffffffffffffffffffffffffffffffffffffffffffffffffffff19161480610eb15750610eb0826117ed565b5b9050919050565b600033905090565b600073ffffffffffffffffffffffffffffffffffffffff168373ffffffffffffffffffffffffffffffffffffffff161415610f30576040517f08c379a0000000000000000000000000000000000000000000000000000000008152600401610f2790612637565b60405180910390fd5b600073ffffffffffffffffffffffffffffffffffffffff168273ffffffffffffffffffffffffffffffffffffffff161415610fa0576040517f08c379a0000000000000000000000000000000000000000000000000000000008152600401610f97906126c9565b60405180910390fd5b80600360008573ffffffffffffffffffffffffffffffffffffffff1673ffffffffffffffffffffffffffffffffffffffff16815260200190815260200160002060008473ffffffffffffffffffffffffffffffffffffffff1673ffffffffffffffffffffffffffffffffffffffff168152602001908152602001600020819055508173ffffffffffffffffffffffffffffffffffffffff168373ffffffffffffffffffffffffffffffffffffffff167f8c5be1e5ebec7d5bd14f71427d1e84f3dd0314c0f7b2291e5b200ac8c7c3b9258360405161107e9190611f8f565b60405180910390a3505050565b600073ffffffffffffffffffffffffffffffffffffffff168373ffffffffffffffffffffffffffffffffffffffff1614156110fb576040517f08c379a00000000000000000000000000000000000000000000000000000000081526004016110f29061275b565b60405180910390fd5b600073ffffffffffffffffffffffffffffffffffffffff168273ffffffffffffffffffffffffffffffffffffffff16141561116b576040517f08c379a0000000000000000000000000000000000000000000000000000000008152600401611162906127ed565b60405180910390fd5b611176838383611857565b6000600260008573ffffffffffffffffffffffffffffffffffffffff1673ffffffffffffffffffffffffffffffffffffffff168152602001908152602001600020549050818110156111fd576040517f08c379a00000000000000000000000000000000000000000000000000000000081526004016111f49061287f565b60405180910390fd5b818103600260008673ffffffffffffffffffffffffffffffffffffffff1673ffffffffffffffffffffffffffffffffffffffff1681526020019081526020016000208190555081600260008573ffffffffffffffffffffffffffffffffffffffff1673ffffffffffffffffffffffffffffffffffffffff168152602001908152602001600020600082825461129291906123b9565b925050819055508273ffffffffffffffffffffffffffffffffffffffff168473ffffffffffffffffffffffffffffffffffffffff167fddf252ad1be2c89b69c2b068fc378daa952ba7f163c4a11628f55a4df523b3ef846040516112f69190611f8f565b60405180910390a3611309848484611867565b50505050565b6113198282610a2a565b6113a85761133e8173ffffffffffffffffffffffffffffffffffffffff16601461186c565b61134c8360001c602061186c565b60405160200161135d929190612973565b6040516020818303038152906040526040517f08c379a000000000000000000000000000000000000000000000000000000000815260040161139f9190611e8a565b60405180910390fd5b5050565b6113b68282610d2e565b6113db8160016000858152602001908152602001600020610e0e90919063ffffffff16565b505050565b6113ea8282611aa8565b61140f8160016000858152602001908152602001600020611b8990919063ffffffff16565b505050565b600073ffffffffffffffffffffffffffffffffffffffff168273ffffffffffffffffffffffffffffffffffffffff161415611484576040517f08c379a000000000000000000000000000000000000000000000000000000000815260040161147b906129f9565b60405180910390fd5b61149060008383611857565b80600460008282546114a291906123b9565b9250508190555080600260008473ffffffffffffffffffffffffffffffffffffffff1673ffffffffffffffffffffffffffffffffffffffff16815260200190815260200160002060008282546114f891906123b9565b925050819055508173ffffffffffffffffffffffffffffffffffffffff16600073ffffffffffffffffffffffffffffffffffffffff167fddf252ad1be2c89b69c2b068fc378daa952ba7f163c4a11628f55a4df523b3ef8360405161155d9190611f8f565b60405180910390a361157160008383611867565b5050565b600073ffffffffffffffffffffffffffffffffffffffff168273ffffffffffffffffffffffffffffffffffffffff1614156115e5576040517f08c379a00000000000000000000000000000000000000000000000000000000081526004016115dc90612a8b565b60405180910390fd5b6115f182600083611857565b6000600260008473ffffffffffffffffffffffffffffffffffffffff1673ffffffffffffffffffffffffffffffffffffffff16815260200190815260200160002054905081811015611678576040517f08c379a000000000000000000000000000000000000000000000000000000000815260040161166f90612b1d565b60405180910390fd5b818103600260008573ffffffffffffffffffffffffffffffffffffffff1673ffffffffffffffffffffffffffffffffffffffff1681526020019081526020016000208190555081600460008282546116d09190612b3d565b92505081905550600073ffffffffffffffffffffffffffffffffffffffff168373ffffffffffffffffffffffffffffffffffffffff167fddf252ad1be2c89b69c2b068fc378daa952ba7f163c4a11628f55a4df523b3ef846040516117359190611f8f565b60405180910390a361174983600084611867565b505050565b600061175d8360000183611bb9565b60001c905092915050565b600061177682600001611be4565b9050919050565b60006117898383611bf5565b6117e25782600001829080600181540180825580915050600190039060005260206000200160009091909190915055826000018054905083600101600084815260200190815260200160002081905550600190506117e7565b600090505b92915050565b60007f01ffc9a7000000000000000000000000000000000000000000000000000000007bffffffffffffffffffffffffffffffffffffffffffffffffffffffff1916827bffffffffffffffffffffffffffffffffffffffffffffffffffffffff1916149050919050565b611862838383611c18565b505050565b505050565b60606000600283600261187f9190612b71565b61188991906123b9565b67ffffffffffffffff8111156118a2576118a1612bcb565b5b6040519080825280601f01601f1916602001820160405280156118d45781602001600182028036833780820191505090505b5090507f30000000000000000000000000000000000000000000000000000000000000008160008151811061190c5761190b612bfa565b5b60200101907effffffffffffffffffffffffffffffffffffffffffffffffffffffffffffff1916908160001a9053507f7800000000000000000000000000000000000000000000000000000000000000816001815181106119705761196f612bfa565b5b60200101907effffffffffffffffffffffffffffffffffffffffffffffffffffffffffffff1916908160001a905350600060018460026119b09190612b71565b6119ba91906123b9565b90505b6001811115611a5a577f3031323334353637383961626364656600000000000000000000000000000000600f8616601081106119fc576119fb612bfa565b5b1a60f81b828281518110611a1357611a12612bfa565b5b60200101907effffffffffffffffffffffffffffffffffffffffffffffffffffffffffffff1916908160001a905350600485901c945080611a5390612c29565b90506119bd565b5060008414611a9e576040517f08c379a0000000000000000000000000000000000000000000000000000000008152600401611a9590612c9f565b60405180910390fd5b8091505092915050565b611ab28282610a2a565b15611b8557600080600084815260200190815260200160002060000160008373ffffffffffffffffffffffffffffffffffffffff1673ffffffffffffffffffffffffffffffffffffffff16815260200190815260200160002060006101000a81548160ff021916908315150217905550611b2a610eb8565b73ffffffffffffffffffffffffffffffffffffffff168173ffffffffffffffffffffffffffffffffffffffff16837ff6391f5c32d9c69d2a47ea670b442974b53935d1edc7fd64eb21e047a839171b60405160405180910390a45b5050565b6000611bb1836000018373ffffffffffffffffffffffffffffffffffffffff1660001b611c1d565b905092915050565b6000826000018281548110611bd157611bd0612bfa565b5b9060005260206000200154905092915050565b600081600001805490509050919050565b600080836001016000848152602001908152602001600020541415905092915050565b505050565b60008083600101600084815260200190815260200160002054905060008114611d25576000600182611c4f9190612b3d565b9050600060018660000180549050611c679190612b3d565b9050818114611cd6576000866000018281548110611c8857611c87612bfa565b5b9060005260206000200154905080876000018481548110611cac57611cab612bfa565b5b90600052602060002001819055508387600101600083815260200190815260200160002081905550505b85600001805480611cea57611ce9612cbf565b5b600190038181906000526020600020016000905590558560010160008681526020019081526020016000206000905560019350505050611d2b565b60009150505b92915050565b600080fd5b60007fffffffff0000000000000000000000000000000000000000000000000000000082169050919050565b611d6b81611d36565b8114611d7657600080fd5b50565b600081359050611d8881611d62565b92915050565b600060208284031215611da457611da3611d31565b5b6000611db284828501611d79565b91505092915050565b60008115159050919050565b611dd081611dbb565b82525050565b6000602082019050611deb6000830184611dc7565b92915050565b600081519050919050565b600082825260208201905092915050565b60005b83811015611e2b578082015181840152602081019050611e10565b83811115611e3a576000848401525b50505050565b6000601f19601f8301169050919050565b6000611e5c82611df1565b611e668185611dfc565b9350611e76818560208601611e0d565b611e7f81611e40565b840191505092915050565b60006020820190508181036000830152611ea48184611e51565b905092915050565b600073ffffffffffffffffffffffffffffffffffffffff82169050919050565b6000611ed782611eac565b9050919050565b611ee781611ecc565b8114611ef257600080fd5b50565b600081359050611f0481611ede565b92915050565b6000819050919050565b611f1d81611f0a565b8114611f2857600080fd5b50565b600081359050611f3a81611f14565b92915050565b60008060408385031215611f5757611f56611d31565b5b6000611f6585828601611ef5565b9250506020611f7685828601611f2b565b9150509250929050565b611f8981611f0a565b82525050565b6000602082019050611fa46000830184611f80565b92915050565b600080600060608486031215611fc357611fc2611d31565b5b6000611fd186828701611ef5565b9350506020611fe286828701611ef5565b9250506040611ff386828701611f2b565b9150509250925092565b6000819050919050565b61201081611ffd565b811461201b57600080fd5b50565b60008135905061202d81612007565b92915050565b60006020828403121561204957612048611d31565b5b60006120578482850161201e565b91505092915050565b61206981611ffd565b82525050565b60006020820190506120846000830184612060565b92915050565b600080604083850312156120a1576120a0611d31565b5b60006120af8582860161201e565b92505060206120c085828601611ef5565b9150509250929050565b600060ff82169050919050565b6120e0816120ca565b82525050565b60006020820190506120fb60008301846120d7565b92915050565b60006020828403121561211757612116611d31565b5b600061212584828501611f2b565b91505092915050565b60006020828403121561214457612143611d31565b5b600061215284828501611ef5565b91505092915050565b6000806040838503121561217257612171611d31565b5b60006121808582860161201e565b925050602061219185828601611f2b565b9150509250929050565b6121a481611ecc565b82525050565b60006020820190506121bf600083018461219b565b92915050565b600080604083850312156121dc576121db611d31565b5b60006121ea85828601611ef5565b92505060206121fb85828601611ef5565b9150509250929050565b7f4e487b7100000000000000000000000000000000000000000000000000000000600052602260045260246000fd5b6000600282049050600182168061224c57607f821691505b602082108114156122605761225f612205565b5b50919050565b7f45524332303a207472616e7366657220616d6f756e742065786365656473206160008201527f6c6c6f77616e6365000000000000000000000000000000000000000000000000602082015250565b60006122c2602883611dfc565b91506122cd82612266565b604082019050919050565b600060208201905081810360008301526122f1816122b5565b9050919050565b7f416363657373436f6e74726f6c3a2063616e206f6e6c792072656e6f756e636560008201527f20726f6c657320666f722073656c660000000000000000000000000000000000602082015250565b6000612354602f83611dfc565b915061235f826122f8565b604082019050919050565b6000602082019050818103600083015261238381612347565b9050919050565b7f4e487b7100000000000000000000000000000000000000000000000000000000600052601160045260246000fd5b60006123c482611f0a565b91506123cf83611f0a565b9250827fffffffffffffffffffffffffffffffffffffffffffffffffffffffffffffffff038211156124045761240361238a565b5b828201905092915050565b7f45524332305072657365744d696e7465725061757365723a206d75737420686160008201527f7665206d696e74657220726f6c6520746f206d696e7400000000000000000000602082015250565b600061246b603683611dfc565b91506124768261240f565b604082019050919050565b6000602082019050818103600083015261249a8161245e565b9050919050565b7f45524332303a206275726e20616d6f756e74206578636565647320616c6c6f7760008201527f616e636500000000000000000000000000000000000000000000000000000000602082015250565b60006124fd602483611dfc565b9150612508826124a1565b604082019050919050565b6000602082019050818103600083015261252c816124f0565b9050919050565b7f45524332303a2064656372656173656420616c6c6f77616e63652062656c6f7760008201527f207a65726f000000000000000000000000000000000000000000000000000000602082015250565b600061258f602583611dfc565b915061259a82612533565b604082019050919050565b600060208201905081810360008301526125be81612582565b9050919050565b7f45524332303a20617070726f76652066726f6d20746865207a65726f2061646460008201527f7265737300000000000000000000000000000000000000000000000000000000602082015250565b6000612621602483611dfc565b915061262c826125c5565b604082019050919050565b6000602082019050818103600083015261265081612614565b9050919050565b7f45524332303a20617070726f766520746f20746865207a65726f20616464726560008201527f7373000000000000000000000000000000000000000000000000000000000000602082015250565b60006126b3602283611dfc565b91506126be82612657565b604082019050919050565b600060208201905081810360008301526126e2816126a6565b9050919050565b7f45524332303a207472616e736665722066726f6d20746865207a65726f20616460008201527f6472657373000000000000000000000000000000000000000000000000000000602082015250565b6000612745602583611dfc565b9150612750826126e9565b604082019050919050565b6000602082019050818103600083015261277481612738565b9050919050565b7f45524332303a207472616e7366657220746f20746865207a65726f206164647260008201527f6573730000000000000000000000000000000000000000000000000000000000602082015250565b60006127d7602383611dfc565b91506127e28261277b565b604082019050919050565b60006020820190508181036000830152612806816127ca565b9050919050565b7f45524332303a207472616e7366657220616d6f756e742065786365656473206260008201527f616c616e63650000000000000000000000000000000000000000000000000000602082015250565b6000612869602683611dfc565b91506128748261280d565b604082019050919050565b600060208201905081810360008301526128988161285c565b9050919050565b600081905092915050565b7f416363657373436f6e74726f6c3a206163636f756e7420000000000000000000600082015250565b60006128e060178361289f565b91506128eb826128aa565b601782019050919050565b600061290182611df1565b61290b818561289f565b935061291b818560208601611e0d565b80840191505092915050565b7f206973206d697373696e6720726f6c6520000000000000000000000000000000600082015250565b600061295d60118361289f565b915061296882612927565b601182019050919050565b600061297e826128d3565b915061298a82856128f6565b915061299582612950565b91506129a182846128f6565b91508190509392505050565b7f45524332303a206d696e7420746f20746865207a65726f206164647265737300600082015250565b60006129e3601f83611dfc565b91506129ee826129ad565b602082019050919050565b60006020820190508181036000830152612a12816129d6565b9050919050565b7f45524332303a206275726e2066726f6d20746865207a65726f2061646472657360008201527f7300000000000000000000000000000000000000000000000000000000000000602082015250565b6000612a75602183611dfc565b9150612a8082612a19565b604082019050919050565b60006020820190508181036000830152612aa481612a68565b9050919050565b7f45524332303a206275726e20616d6f756e7420657863656564732062616c616e60008201527f6365000000000000000000000000000000000000000000000000000000000000602082015250565b6000612b07602283611dfc565b9150612b1282612aab565b604082019050919050565b60006020820190508181036000830152612b3681612afa565b9050919050565b6000612b4882611f0a565b9150612b5383611f0a565b925082821015612b6657612b6561238a565b5b828203905092915050565b6000612b7c82611f0a565b9150612b8783611f0a565b9250817fffffffffffffffffffffffffffffffffffffffffffffffffffffffffffffffff0483118215151615612bc057612bbf61238a565b5b828202905092915050565b7f4e487b7100000000000000000000000000000000000000000000000000000000600052604160045260246000fd5b7f4e487b7100000000000000000000000000000000000000000000000000000000600052603260045260246000fd5b6000612c3482611f0a565b91506000821415612c4857612c4761238a565b5b600182039050919050565b7f537472696e67733a20686578206c656e67746820696e73756666696369656e74600082015250565b6000612c89602083611dfc565b9150612c9482612c53565b602082019050919050565b60006020820190508181036000830152612cb881612c7c565b9050919050565b7f4e487b7100000000000000000000000000000000000000000000000000000000600052603160045260246000fdfea2646970667358221220e246c2c567ae34d36b1171d2fd6a13c64f982c971ad467e7e4dfe03c4b13e72f64736f6c634300080a0033a264697066735822122022bfaa3501c5878dd6d6dde5bcd7748a49fb58ef50913ed6b834bfd34718c64664736f6c634300080a0033",
  "immutableReferences": {},
  "source": "pragma solidity ^0.8.0;\n\nimport \"./ERC20PresetMinterPauser.sol\";\n\ncontract CICfactory {\n\n   string[] public CIC_list;\n   struct Contract { \n     string name;\n     string symbol;\n     address erc20Address;\n     address[] backers;\n     bool[] signed;\n     string[] goods;\n     uint[] amounts;\n     uint256[] values;\n     uint256[] minted;\n     string hash;\n   }\n   mapping(string => Contract) CIC_contracts;\n   \n   function GetCount() public view returns(uint count) {\n    return CIC_list.length;\n   }\n   function getContractSymbol(string calldata cic) public view returns ( \n     string memory symbol){\n         return (CIC_contracts[cic].symbol);\n     }\n     function getContractAddress(string calldata cic) public view returns ( \n     address erc20Address){\n         return (CIC_contracts[cic].erc20Address);\n     }\n     function getContractBackers(string calldata cic) public view returns ( \n     address[] memory backers){\n         return (CIC_contracts[cic].backers);\n     }\n     function getContractSignatures(string calldata cic) public view returns ( \n     bool[] memory signed){\n         return (CIC_contracts[cic].signed);\n     }\n     function getContractGoods(string calldata cic) public view returns ( \n     string[] memory goods){\n         return (CIC_contracts[cic].goods);\n     }\n     function getContractAmounts(string calldata cic) public view returns ( \n     uint[] memory amounts){\n         return (CIC_contracts[cic].amounts);\n     }\n     function getContractValues(string calldata cic) public view returns ( \n     uint256[] memory values){\n         return (CIC_contracts[cic].values);\n     }\n     function getContractMinted(string calldata cic) public view returns ( \n     uint256[] memory minted){\n         return (CIC_contracts[cic].minted);\n     }\n     function getContractHash(string calldata cic) public view returns ( \n     string memory hash){\n         return (CIC_contracts[cic].hash);\n     }\n \n //  function deploy721Contract(\n //      string calldata name,\n //      string calldata symbol,\n //      string calldata baseUrl\n //  ) external returns (myERC721 cardAddress) {\n\n //      myERC721 newCards = new myERC721(name, symbol, baseUrl);\n\n //      tokenAddress.push(address(newCards));\n //      return newCards;\n //  }\n\n    constructor() {\n    // what should we do on deploy?\n    }\n\n\n    function Create_CIC_Contract(\n        string calldata _name,\n        string calldata symbol,\n        address[] memory backers,\n        bool[] memory signed,\n        string[] memory goods,\n        uint[] memory amounts, \n        uint256[] memory values,\n        string calldata _hash\n    ) external returns (bool) {\n\n        //require name is not already \n        require (keccak256(abi.encodePacked(CIC_contracts[_name].name)) == keccak256(abi.encodePacked(\"\")));\n        uint256[] memory minted = new uint256[](backers.length);\n        //bool[] memory signed;\n\n        CIC_contracts[_name] = Contract(_name, symbol, address(0), backers, signed, goods, amounts, values, minted, _hash);\n\n        CIC_list.push(_name);\n        return true;\n    }\n    \n    function signCIC(\n        string calldata cic,\n        uint backer_num\n    ) external returns (bool) {\n        require(CIC_contracts[cic].backers[backer_num] == msg.sender);\n        CIC_contracts[cic].signed[backer_num] = true;\n\n        return true;\n    }\n    \n    function mintCIC(\n        string calldata cic_name    \n    ) external returns (address newCIC) {\n        for (uint i=0; i< CIC_contracts[cic_name].backers.length; i++){\n            require(CIC_contracts[cic_name].signed[i] == true);\n        }\n        ERC20PresetMinterPauser token = new ERC20PresetMinterPauser(\n            CIC_contracts[cic_name].name,\n            CIC_contracts[cic_name].symbol\n        );\n        for (uint i=0; i< CIC_contracts[cic_name].values.length; i++){\n            token.mint(CIC_contracts[cic_name].backers[i], CIC_contracts[cic_name].values[i]);\n        }\n        \n        CIC_contracts[cic_name].erc20Address = address(token);\n        return address(token);\n    }\n}",
  "sourcePath": "/Users/darrenzal/CIC_react/contracts/CICfactory.sol",
  "compiler": {
    "name": "solc",
    "version": "0.8.10+commit.fc410830.Emscripten.clang"
  },
  "schemaVersion": "3.4.3",
  "updatedAt": "2021-11-27T17:33:25.527Z",
  "networkType": "ethereum",
  "devdoc": {
    "kind": "dev",
    "methods": {},
    "version": 1
  },
  "userdoc": {
    "kind": "user",
    "methods": {},
    "version": 1
  }
}